{
  "transactions": [
    {
      "hash": "0x28f8ec83210579299057da4381be812105c894f904d6715997fd20011eff2207",
      "transactionType": "CALL",
      "contractName": null,
      "contractAddress": "0x5fd84259d66Cd46123540766Be93DFE6D43130D7",
      "function": "approve(address,uint256)",
      "arguments": [
        "0xD93eBB95196AF1D9FdD1dD970fAC1d2BFfDb8046",
        "2000000"
      ],
      "transaction": {
        "type": "0x02",
        "from": "0x4a3af8c69cee81182a9e74b2392d4bdc616bf7c7",
        "to": "0x5fd84259d66cd46123540766be93dfe6d43130d7",
        "gas": "0x12b1b",
        "value": "0x0",
        "data": "0x095ea7b3000000000000000000000000d93ebb95196af1d9fdd1dd970fac1d2bffdb804600000000000000000000000000000000000000000000000000000000001e8480",
        "nonce": "0x36",
        "accessList": []
      },
      "additionalContracts": [],
      "isFixedGasLimit": false
    },
    {
      "hash": "0x50719b0fed242b20baa6de1951c37c9d97284c2f31228c2507ebcb78f7f89bf5",
      "transactionType": "CALL",
      "contractName": null,
      "contractAddress": "0xD93eBB95196AF1D9FdD1dD970fAC1d2BFfDb8046",
      "function": "depositCollateral(address,uint256)",
      "arguments": [
        "0x5fd84259d66Cd46123540766Be93DFE6D43130D7",
        "2000000"
      ],
      "transaction": {
        "type": "0x02",
        "from": "0x4a3af8c69cee81182a9e74b2392d4bdc616bf7c7",
        "to": "0xd93ebb95196af1d9fdd1dd970fac1d2bffdb8046",
        "gas": "0x61a7d",
        "value": "0xb1a2bc2ec50000",
        "data": "0xa5d5db0c0000000000000000000000005fd84259d66cd46123540766be93dfe6d43130d700000000000000000000000000000000000000000000000000000000001e8480",
        "nonce": "0x37",
        "accessList": []
      },
      "additionalContracts": [],
      "isFixedGasLimit": false
    }
  ],
  "receipts": [
    {
      "transactionHash": "0x28f8ec83210579299057da4381be812105c894f904d6715997fd20011eff2207",
      "transactionIndex": "0x1",
      "blockHash": "0x88148db0d458852f49c9666f61bacc64920ebe64cfe1462257cc7dc635d8d93e",
      "blockNumber": "0x1288c8b",
      "from": "0x4a3aF8C69ceE81182A9E74b2392d4bDc616Bf7c7",
      "to": "0x5fd84259d66Cd46123540766Be93DFE6D43130D7",
      "cumulativeGasUsed": "0x183cc",
      "gasUsed": "0xd88d",
      "contractAddress": null,
      "logs": [
        {
          "address": "0x5fd84259d66Cd46123540766Be93DFE6D43130D7",
          "topics": [
            "0x8c5be1e5ebec7d5bd14f71427d1e84f3dd0314c0f7b2291e5b200ac8c7c3b925",
            "0x0000000000000000000000004a3af8c69cee81182a9e74b2392d4bdc616bf7c7",
            "0x000000000000000000000000d93ebb95196af1d9fdd1dd970fac1d2bffdb8046"
          ],
          "data": "0x00000000000000000000000000000000000000000000000000000000001e8480",
          "blockHash": "0x88148db0d458852f49c9666f61bacc64920ebe64cfe1462257cc7dc635d8d93e",
          "blockNumber": "0x1288c8b",
          "transactionHash": "0x28f8ec83210579299057da4381be812105c894f904d6715997fd20011eff2207",
          "transactionIndex": "0x1",
          "logIndex": "0x0",
          "removed": false
        }
      ],
      "status": "0x1",
      "logsBloom": "0x00000000080000000000000000000000000000000000000000000000000000000000000000000000000000000000002000000000000000000000020000200000000000000000000000000000000000000000000000000000080000000000000000000000000000000000820000000000000000200000000000000000000000000000000000000000000000000000000000000000000000000000000000000000020000000400000000000000000000000000000400000000000000000000000000000000000000000000000000000000000000000000000000000000000000000010000000000000000000000000000000000000000000000000000000000000",
      "type": "0x2",
      "effectiveGasPrice": "0xb2d05efb"
    },
    {
      "transactionHash": "0x50719b0fed242b20baa6de1951c37c9d97284c2f31228c2507ebcb78f7f89bf5",
      "transactionIndex": "0x2",
      "blockHash": "0x88148db0d458852f49c9666f61bacc64920ebe64cfe1462257cc7dc635d8d93e",
      "blockNumber": "0x1288c8b",
      "from": "0x4a3aF8C69ceE81182A9E74b2392d4bDc616Bf7c7",
      "to": "0xD93eBB95196AF1D9FdD1dD970fAC1d2BFfDb8046",
      "cumulativeGasUsed": "0x5ef03",
      "gasUsed": "0x46b37",
      "contractAddress": null,
      "logs": [
        {
          "address": "0x5fd84259d66Cd46123540766Be93DFE6D43130D7",
          "topics": [
            "0xddf252ad1be2c89b69c2b068fc378daa952ba7f163c4a11628f55a4df523b3ef",
            "0x0000000000000000000000004a3af8c69cee81182a9e74b2392d4bdc616bf7c7",
            "0x000000000000000000000000d93ebb95196af1d9fdd1dd970fac1d2bffdb8046"
          ],
          "data": "0x00000000000000000000000000000000000000000000000000000000001e8480",
          "blockHash": "0x88148db0d458852f49c9666f61bacc64920ebe64cfe1462257cc7dc635d8d93e",
          "blockNumber": "0x1288c8b",
          "transactionHash": "0x50719b0fed242b20baa6de1951c37c9d97284c2f31228c2507ebcb78f7f89bf5",
          "transactionIndex": "0x2",
          "logIndex": "0x1",
          "removed": false
        },
        {
          "address": "0x5fd84259d66Cd46123540766Be93DFE6D43130D7",
          "topics": [
            "0x8c5be1e5ebec7d5bd14f71427d1e84f3dd0314c0f7b2291e5b200ac8c7c3b925",
            "0x000000000000000000000000d93ebb95196af1d9fdd1dd970fac1d2bffdb8046",
            "0x0000000000000000000000009f3b8679c73c2fef8b59b4f3444d4e156fb70aa5"
          ],
          "data": "0x00000000000000000000000000000000000000000000000000000000001e8480",
          "blockHash": "0x88148db0d458852f49c9666f61bacc64920ebe64cfe1462257cc7dc635d8d93e",
          "blockNumber": "0x1288c8b",
          "transactionHash": "0x50719b0fed242b20baa6de1951c37c9d97284c2f31228c2507ebcb78f7f89bf5",
          "transactionIndex": "0x2",
          "logIndex": "0x2",
          "removed": false
        },
        {
          "address": "0x5fd84259d66Cd46123540766Be93DFE6D43130D7",
          "topics": [
            "0xddf252ad1be2c89b69c2b068fc378daa952ba7f163c4a11628f55a4df523b3ef",
            "0x000000000000000000000000d93ebb95196af1d9fdd1dd970fac1d2bffdb8046",
            "0x000000000000000000000000e997d7d2f6e065a9a93fa2175e878fb9081f1f0a"
          ],
          "data": "0x00000000000000000000000000000000000000000000000000000000001e8480",
          "blockHash": "0x88148db0d458852f49c9666f61bacc64920ebe64cfe1462257cc7dc635d8d93e",
          "blockNumber": "0x1288c8b",
          "transactionHash": "0x50719b0fed242b20baa6de1951c37c9d97284c2f31228c2507ebcb78f7f89bf5",
          "transactionIndex": "0x2",
          "logIndex": "0x3",
          "removed": false
        },
        {
          "address": "0x5fd84259d66Cd46123540766Be93DFE6D43130D7",
          "topics": [
            "0xcc16f5dbb4873280815c1ee09dbd06736cffcc184412cf7a71a0fdb75d397ca5",
            "0x000000000000000000000000e997d7d2f6e065a9a93fa2175e878fb9081f1f0a"
          ],
          "data": "0x00000000000000000000000000000000000000000000000000000000001e8480",
          "blockHash": "0x88148db0d458852f49c9666f61bacc64920ebe64cfe1462257cc7dc635d8d93e",
          "blockNumber": "0x1288c8b",
          "transactionHash": "0x50719b0fed242b20baa6de1951c37c9d97284c2f31228c2507ebcb78f7f89bf5",
          "transactionIndex": "0x2",
          "logIndex": "0x4",
          "removed": false
        },
        {
          "address": "0x5fd84259d66Cd46123540766Be93DFE6D43130D7",
          "topics": [
            "0xddf252ad1be2c89b69c2b068fc378daa952ba7f163c4a11628f55a4df523b3ef",
            "0x000000000000000000000000e997d7d2f6e065a9a93fa2175e878fb9081f1f0a",
            "0x0000000000000000000000000000000000000000000000000000000000000000"
          ],
          "data": "0x00000000000000000000000000000000000000000000000000000000001e8480",
          "blockHash": "0x88148db0d458852f49c9666f61bacc64920ebe64cfe1462257cc7dc635d8d93e",
          "blockNumber": "0x1288c8b",
          "transactionHash": "0x50719b0fed242b20baa6de1951c37c9d97284c2f31228c2507ebcb78f7f89bf5",
          "transactionIndex": "0x2",
          "logIndex": "0x5",
          "removed": false
        },
        {
          "address": "0x7865fAfC2db2093669d92c0F33AeEF291086BEFD",
          "topics": [
            "0x8c5261668696ce22758910d05bab8f186d6eb247ceac2af2e82c7dc17669b036"
          ],
          "data": "0x000000000000000000000000000000000000000000000000000000000000002000000000000000000000000000000000000000000000000000000000000000f80000000000000002000000000000000000004f200000000000000000000000009f3b8679c73c2fef8b59b4f3444d4e156fb70aa50000000000000000000000009f3b8679c73c2fef8b59b4f3444d4e156fb70aa500000000000000000000000005ae831342a66ba3640f5342eebb50352fc6a4b0000000000000000000000000000000005fd84259d66cd46123540766be93dfe6d43130d700000000000000000000000005ae831342a66ba3640f5342eebb50352fc6a4b000000000000000000000000000000000000000000000000000000000001e8480000000000000000000000000d93ebb95196af1d9fdd1dd970fac1d2bffdb80460000000000000000",
          "blockHash": "0x88148db0d458852f49c9666f61bacc64920ebe64cfe1462257cc7dc635d8d93e",
          "blockNumber": "0x1288c8b",
          "transactionHash": "0x50719b0fed242b20baa6de1951c37c9d97284c2f31228c2507ebcb78f7f89bf5",
          "transactionIndex": "0x2",
          "logIndex": "0x6",
          "removed": false
        },
        {
          "address": "0x9f3B8679c73C2Fef8b59B4f3444d4e156fb70AA5",
          "topics": [
            "0x2fa9ca894982930190727e75500a97d8dc500233a5065e0f3126c48fbe0343c0",
            "0x0000000000000000000000000000000000000000000000000000000000004f20",
            "0x0000000000000000000000005fd84259d66cd46123540766be93dfe6d43130d7",
            "0x000000000000000000000000d93ebb95196af1d9fdd1dd970fac1d2bffdb8046"
          ],
          "data": "0x00000000000000000000000000000000000000000000000000000000001e848000000000000000000000000005ae831342a66ba3640f5342eebb50352fc6a4b000000000000000000000000000000000000000000000000000000000000000000000000000000000000000009f3b8679c73c2fef8b59b4f3444d4e156fb70aa500000000000000000000000005ae831342a66ba3640f5342eebb50352fc6a4b0",
          "blockHash": "0x88148db0d458852f49c9666f61bacc64920ebe64cfe1462257cc7dc635d8d93e",
          "blockNumber": "0x1288c8b",
          "transactionHash": "0x50719b0fed242b20baa6de1951c37c9d97284c2f31228c2507ebcb78f7f89bf5",
          "transactionIndex": "0x2",
          "logIndex": "0x7",
          "removed": false
        },
        {
          "address": "0x31377888146f3253211EFEf5c676D41ECe7D58Fe",
          "topics": [
            "0x6eb224fb001ed210e379b335e35efe88672a8ce935d981a6896b27ffdf52a3b2",
            "0x00000000000000000000000093bad53ddfb6132b0ac8e37f6029163e63372cee"
          ],
          "data": "0x0000000000000000000000000000000000000000000000000000000000000a7b00000000000000000000000000000000000000000000000000000000000000000000000000000000000000000000000000000000000000000000000000000080000000000000000000000000000000000000000000000000000000000000000f00000000000000000000000000000000000000000000000000000000000002ff01271400000000000000000000000005ae831342a66ba3640f5342eebb50352fc6a4b0000001a0000000000000000000000000000000000000000000000000000000000000000100000000000000000000000000000000000000000000000000000000001e8480000000000000000000000000000000000000000000000000000000000000006000000000000000000000000000000000000000000000000000000000000001200000000000000000000000000000000000000000000000000000000000000000000000000000000000000000000000000000000000000000000000000000000000000000000000000000000000000000000000000000000000000000000000000000000000000000000000004a3af8c69cee81182a9e74b2392d4bdc616bf7c70000000000000000000000005fd84259d66cd46123540766be93dfe6d43130d700000000000000000000000000000000000000000000000000000000001e8480000000000000000000000000000000000000000000000000000000000000000000000000000000000000000000000000000000000000000000000000000000000000000000000000000000000000000000000000000000000000000000000000000000000000000000000000000000000000000000000000000000000000000000000000000000000000000000000000000000000000000000000000000000000000006000000000000000000000000000000000000000000000000000000000000000000000000000000000000000000000000000000000000000000000000000061a8000000000000000000000000000000000000000000000000000000006a6fd66db271400000000000000000000000000000000000000000000000000000000000000000000000000000000000000007a0a53847776f7e94cc35742971acb2217b0db810000000000000000000000007a0a53847776f7e94cc35742971acb2217b0db81000000000000000000000000d93ebb95196af1d9fdd1dd970fac1d2bffdb804601020000000c000000000000000000004f2000",
          "blockHash": "0x88148db0d458852f49c9666f61bacc64920ebe64cfe1462257cc7dc635d8d93e",
          "blockNumber": "0x1288c8b",
          "transactionHash": "0x50719b0fed242b20baa6de1951c37c9d97284c2f31228c2507ebcb78f7f89bf5",
          "transactionIndex": "0x2",
          "logIndex": "0x8",
          "removed": false
        },
        {
          "address": "0x93BAD53DDfB6132b0aC8E37f6029163E63372cEE",
          "topics": [
            "0xda8540426b64ece7b164a9dce95448765f0a7263ef3ff85091c9c7361e485364",
            "0x0000000000000000000000000000000000000000000000000000000000000a7b"
          ],
          "data": "0x000000000000000000000000000000000000000000000000004fefa17b7240000000000000000000000000000000000000000000000000000000000000000000",
          "blockHash": "0x88148db0d458852f49c9666f61bacc64920ebe64cfe1462257cc7dc635d8d93e",
          "blockNumber": "0x1288c8b",
          "transactionHash": "0x50719b0fed242b20baa6de1951c37c9d97284c2f31228c2507ebcb78f7f89bf5",
          "transactionIndex": "0x2",
          "logIndex": "0x9",
          "removed": false
        },
        {
          "address": "0xD93eBB95196AF1D9FdD1dD970fAC1d2BFfDb8046",
          "topics": [
            "0x55598edb5fc0c4eb88e09edeeaa7f5e451f8b13d33c3f9585dcceeb492736a97",
            "0x0000000000000000000000000000000000000000000000000000000000002714",
            "0x00000000000000000000000000000000000000000000000000000000001e8480",
            "0x0000000000000000000000004a3af8c69cee81182a9e74b2392d4bdc616bf7c7"
          ],
          "data": "0x0000000000000000000000005fd84259d66cd46123540766be93dfe6d43130d7",
          "blockHash": "0x88148db0d458852f49c9666f61bacc64920ebe64cfe1462257cc7dc635d8d93e",
          "blockNumber": "0x1288c8b",
          "transactionHash": "0x50719b0fed242b20baa6de1951c37c9d97284c2f31228c2507ebcb78f7f89bf5",
          "transactionIndex": "0x2",
          "logIndex": "0xa",
          "removed": false
        }
      ],
      "status": "0x1",
      "logsBloom": "0x0020000908010800000000200004000000000000000000100000000000000080001000000000020000000001000000280000001080004000000002000020000000000200200000000000000800000000000000000001000008020002000000000000004012a000400000920000100880080000200040000010100010100000000000000000001004000010000100000000000000000000800000002000200000020000000400000000000000010000000280000400000000100000000000000000000002000000000400000000000000000000000000000000000000000020000010000480000020100000000080010002080000000000000000080000000000",
      "type": "0x2",
      "effectiveGasPrice": "0xb2d05efb"
    }
  ],
  "libraries": [],
  "pending": [],
  "returns": {},
  "timestamp": 1730671814,
  "chain": 11155420,
  "commit": "5386d36"
}