{
  "transactions": [
    {
      "hash": "0xd05a1e477ae78c889e474ed5729dc12d842db09732d0220213af189b2d532faa",
      "transactionType": "CALL",
      "contractName": null,
      "contractAddress": "0xd556b9e2c661eFEbf8775cb538ff696621edD353",
      "function": "setHub(uint16,address)",
      "arguments": [
        "10004",
        "0x05AE831342A66bA3640F5342eeBb50352fC6A4B0"
      ],
      "transaction": {
        "type": "0x02",
        "from": "0x4a3af8c69cee81182a9e74b2392d4bdc616bf7c7",
        "to": "0xd556b9e2c661efebf8775cb538ff696621edd353",
        "gas": "0xa370",
        "value": "0x0",
        "data": "0x71d17efc000000000000000000000000000000000000000000000000000000000000271400000000000000000000000005ae831342a66ba3640f5342eebb50352fc6a4b0",
        "nonce": "0xd",
        "accessList": []
      },
      "additionalContracts": [],
      "isFixedGasLimit": false
    },
    {
      "hash": "0x0de15647ee1cae20c44faab196f2b1bda66cf593ba43d091d7d7ee74886a85b7",
      "transactionType": "CALL",
      "contractName": null,
      "contractAddress": "0xd556b9e2c661eFEbf8775cb538ff696621edD353",
      "function": "setSpokeToHub(address,address)",
      "arguments": [
        "0x0000000000000000000000000000000000000001",
        "0x0000000000000000000000000000000000000001"
      ],
      "transaction": {
        "type": "0x02",
        "from": "0x4a3af8c69cee81182a9e74b2392d4bdc616bf7c7",
        "to": "0xd556b9e2c661efebf8775cb538ff696621edd353",
        "gas": "0xf9ec",
        "value": "0x0",
        "data": "0x7fb04add00000000000000000000000000000000000000000000000000000000000000010000000000000000000000000000000000000000000000000000000000000001",
        "nonce": "0xe",
        "accessList": []
      },
      "additionalContracts": [],
      "isFixedGasLimit": false
    },
    {
      "hash": "0xce36caa07446b27d1b92abb70098d0a5cd7d179ce766f582ae10050e3bf9065a",
      "transactionType": "CALL",
      "contractName": null,
      "contractAddress": "0xd556b9e2c661eFEbf8775cb538ff696621edD353",
      "function": "setSpokeToHub(address,address)",
      "arguments": [
        "0x980B62Da83eFf3D4576C647993b0c1D7faf17c73",
        "0x0000000000000000000000000000000000000001"
      ],
      "transaction": {
        "type": "0x02",
        "from": "0x4a3af8c69cee81182a9e74b2392d4bdc616bf7c7",
        "to": "0xd556b9e2c661efebf8775cb538ff696621edd353",
        "gas": "0xfb15",
        "value": "0x0",
        "data": "0x7fb04add000000000000000000000000980b62da83eff3d4576c647993b0c1d7faf17c730000000000000000000000000000000000000000000000000000000000000001",
        "nonce": "0xf",
        "accessList": []
      },
      "additionalContracts": [],
      "isFixedGasLimit": false
    },
    {
      "hash": "0x0ffcc62dd5cb2d45fec89e7e1273ca4fa8a7e95663ce4f700915bd082a4e0f81",
      "transactionType": "CALL",
      "contractName": null,
      "contractAddress": "0xd556b9e2c661eFEbf8775cb538ff696621edD353",
      "function": "setSpokeToHub(address,address)",
      "arguments": [
        "0x75faf114eafb1BDbe2F0316DF893fd58CE46AA4d",
        "0x036CbD53842c5426634e7929541eC2318f3dCF7e"
      ],
      "transaction": {
        "type": "0x02",
        "from": "0x4a3af8c69cee81182a9e74b2392d4bdc616bf7c7",
        "to": "0xd556b9e2c661efebf8775cb538ff696621edd353",
        "gas": "0xfc3d",
        "value": "0x0",
        "data": "0x7fb04add00000000000000000000000075faf114eafb1bdbe2f0316df893fd58ce46aa4d000000000000000000000000036cbd53842c5426634e7929541ec2318f3dcf7e",
        "nonce": "0x10",
        "accessList": []
      },
      "additionalContracts": [],
      "isFixedGasLimit": false
    },
    {
      "hash": "0xf9f9ed267f9d084b15b63650b1f2e84d359c48ffe0dcbc090e14533790696468",
      "transactionType": "CALL",
      "contractName": null,
      "contractAddress": "0xd556b9e2c661eFEbf8775cb538ff696621edD353",
      "function": "depositCollateral(address,uint256)",
      "arguments": [
        "0x0000000000000000000000000000000000000001",
        "50000000000000000"
      ],
      "transaction": {
        "type": "0x02",
        "from": "0x4a3af8c69cee81182a9e74b2392d4bdc616bf7c7",
        "to": "0xd556b9e2c661efebf8775cb538ff696621edd353",
        "gas": "0x5e9ea",
        "value": "0xb1a2bc2ec50000",
        "data": "0xa5d5db0c000000000000000000000000000000000000000000000000000000000000000100000000000000000000000000000000000000000000000000b1a2bc2ec50000",
        "nonce": "0x11",
        "accessList": []
      },
      "additionalContracts": [],
      "isFixedGasLimit": false
    }
  ],
  "receipts": [
    {
      "transactionHash": "0xd05a1e477ae78c889e474ed5729dc12d842db09732d0220213af189b2d532faa",
      "transactionIndex": "0x1",
      "blockHash": "0xc3e0602171421c174c6c3ebe0faa936ecafc0bd973539e3ca73486edf6b91a0f",
      "blockNumber": "0x59cb6b0",
      "from": "0x4a3aF8C69ceE81182A9E74b2392d4bDc616Bf7c7",
      "to": "0xd556b9e2c661eFEbf8775cb538ff696621edD353",
      "cumulativeGasUsed": "0x7a2c",
      "gasUsed": "0x7a2c",
      "contractAddress": null,
      "logs": [],
      "status": "0x1",
      "logsBloom": "0x00000000000000000000000000000000000000000000000000000000000000000000000000000000000000000000000000000000000000000000000000000000000000000000000000000000000000000000000000000000000000000000000000000000000000000000000000000000000000000000000000000000000000000000000000000000000000000000000000000000000000000000000000000000000000000000000000000000000000000000000000000000000000000000000000000000000000000000000000000000000000000000000000000000000000000000000000000000000000000000000000000000000000000000000000000000",
      "type": "0x2",
      "effectiveGasPrice": "0x5f5e100"
    },
    {
      "transactionHash": "0x0de15647ee1cae20c44faab196f2b1bda66cf593ba43d091d7d7ee74886a85b7",
      "transactionIndex": "0x1",
      "blockHash": "0x4a5c62f37c4755376f6b97fab8d5273e7200567180eb2c530f7edaa1b20cdf3b",
      "blockNumber": "0x59cb6b4",
      "from": "0x4a3aF8C69ceE81182A9E74b2392d4bDc616Bf7c7",
      "to": "0xd556b9e2c661eFEbf8775cb538ff696621edD353",
      "cumulativeGasUsed": "0xbc91",
      "gasUsed": "0xbc91",
      "contractAddress": null,
      "logs": [],
      "status": "0x1",
      "logsBloom": "0x00000000000000000000000000000000000000000000000000000000000000000000000000000000000000000000000000000000000000000000000000000000000000000000000000000000000000000000000000000000000000000000000000000000000000000000000000000000000000000000000000000000000000000000000000000000000000000000000000000000000000000000000000000000000000000000000000000000000000000000000000000000000000000000000000000000000000000000000000000000000000000000000000000000000000000000000000000000000000000000000000000000000000000000000000000000",
      "type": "0x2",
      "effectiveGasPrice": "0x5f5e100"
    },
    {
      "transactionHash": "0xce36caa07446b27d1b92abb70098d0a5cd7d179ce766f582ae10050e3bf9065a",
      "transactionIndex": "0x2",
      "blockHash": "0xbbb1a1bd2da6874ceb0fdc1475e13f90c7b139c1b13d2e7dcceb0dc9f19fbd38",
      "blockNumber": "0x59cb6bc",
      "from": "0x4a3aF8C69ceE81182A9E74b2392d4bDc616Bf7c7",
      "to": "0xd556b9e2c661eFEbf8775cb538ff696621edD353",
      "cumulativeGasUsed": "0x4cc24",
      "gasUsed": "0xbd75",
      "contractAddress": null,
      "logs": [],
      "status": "0x1",
      "logsBloom": "0x00000000000000000000000000000000000000000000000000000000000000000000000000000000000000000000000000000000000000000000000000000000000000000000000000000000000000000000000000000000000000000000000000000000000000000000000000000000000000000000000000000000000000000000000000000000000000000000000000000000000000000000000000000000000000000000000000000000000000000000000000000000000000000000000000000000000000000000000000000000000000000000000000000000000000000000000000000000000000000000000000000000000000000000000000000000",
      "type": "0x2",
      "effectiveGasPrice": "0x5f5e100"
    },
    {
      "transactionHash": "0x0ffcc62dd5cb2d45fec89e7e1273ca4fa8a7e95663ce4f700915bd082a4e0f81",
      "transactionIndex": "0x1",
      "blockHash": "0xa742318dede30b4fae24a8ec1affd505615664cd73584e846afada5f72f362f3",
      "blockNumber": "0x59cb6c1",
      "from": "0x4a3aF8C69ceE81182A9E74b2392d4bDc616Bf7c7",
      "to": "0xd556b9e2c661eFEbf8775cb538ff696621edD353",
      "cumulativeGasUsed": "0xbe59",
      "gasUsed": "0xbe59",
      "contractAddress": null,
      "logs": [],
      "status": "0x1",
      "logsBloom": "0x00000000000000000000000000000000000000000000000000000000000000000000000000000000000000000000000000000000000000000000000000000000000000000000000000000000000000000000000000000000000000000000000000000000000000000000000000000000000000000000000000000000000000000000000000000000000000000000000000000000000000000000000000000000000000000000000000000000000000000000000000000000000000000000000000000000000000000000000000000000000000000000000000000000000000000000000000000000000000000000000000000000000000000000000000000000",
      "type": "0x2",
      "effectiveGasPrice": "0x5f5e100"
    },
    {
      "transactionHash": "0xf9f9ed267f9d084b15b63650b1f2e84d359c48ffe0dcbc090e14533790696468",
      "transactionIndex": "0x1",
      "blockHash": "0x7717caa19386fb0a4d37eb4783307ced866ea9cab259bfe3f9bdd625f27edf1b",
      "blockNumber": "0x59cb6c8",
      "from": "0x4a3aF8C69ceE81182A9E74b2392d4bDc616Bf7c7",
      "to": "0xd556b9e2c661eFEbf8775cb538ff696621edD353",
      "cumulativeGasUsed": "0x45086",
      "gasUsed": "0x45086",
      "contractAddress": null,
      "logs": [
        {
          "address": "0x980B62Da83eFf3D4576C647993b0c1D7faf17c73",
          "topics": [
            "0xddf252ad1be2c89b69c2b068fc378daa952ba7f163c4a11628f55a4df523b3ef",
            "0x0000000000000000000000000000000000000000000000000000000000000000",
            "0x000000000000000000000000d556b9e2c661efebf8775cb538ff696621edd353"
          ],
          "data": "0x0000000000000000000000000000000000000000000000000061b31ab352c000",
          "blockHash": "0x7717caa19386fb0a4d37eb4783307ced866ea9cab259bfe3f9bdd625f27edf1b",
          "blockNumber": "0x59cb6c8",
          "transactionHash": "0xf9f9ed267f9d084b15b63650b1f2e84d359c48ffe0dcbc090e14533790696468",
          "transactionIndex": "0x1",
          "logIndex": "0x0",
          "removed": false
        },
        {
          "address": "0x980B62Da83eFf3D4576C647993b0c1D7faf17c73",
          "topics": [
            "0x8c5be1e5ebec7d5bd14f71427d1e84f3dd0314c0f7b2291e5b200ac8c7c3b925",
            "0x000000000000000000000000d556b9e2c661efebf8775cb538ff696621edd353",
            "0x000000000000000000000000c7a204bdbfe983fcd8d8e61d02b475d4073ff97e"
          ],
          "data": "0x0000000000000000000000000000000000000000000000000061b31ab352c000",
          "blockHash": "0x7717caa19386fb0a4d37eb4783307ced866ea9cab259bfe3f9bdd625f27edf1b",
          "blockNumber": "0x59cb6c8",
          "transactionHash": "0xf9f9ed267f9d084b15b63650b1f2e84d359c48ffe0dcbc090e14533790696468",
          "transactionIndex": "0x1",
          "logIndex": "0x1",
          "removed": false
        },
        {
          "address": "0x980B62Da83eFf3D4576C647993b0c1D7faf17c73",
          "topics": [
            "0xddf252ad1be2c89b69c2b068fc378daa952ba7f163c4a11628f55a4df523b3ef",
            "0x000000000000000000000000d556b9e2c661efebf8775cb538ff696621edd353",
            "0x000000000000000000000000c7a204bdbfe983fcd8d8e61d02b475d4073ff97e"
          ],
          "data": "0x0000000000000000000000000000000000000000000000000061b31ab352c000",
          "blockHash": "0x7717caa19386fb0a4d37eb4783307ced866ea9cab259bfe3f9bdd625f27edf1b",
          "blockNumber": "0x59cb6c8",
          "transactionHash": "0xf9f9ed267f9d084b15b63650b1f2e84d359c48ffe0dcbc090e14533790696468",
          "transactionIndex": "0x1",
          "logIndex": "0x2",
          "removed": false
        },
        {
          "address": "0x980B62Da83eFf3D4576C647993b0c1D7faf17c73",
          "topics": [
            "0x8c5be1e5ebec7d5bd14f71427d1e84f3dd0314c0f7b2291e5b200ac8c7c3b925",
            "0x000000000000000000000000d556b9e2c661efebf8775cb538ff696621edd353",
            "0x000000000000000000000000c7a204bdbfe983fcd8d8e61d02b475d4073ff97e"
          ],
          "data": "0x0000000000000000000000000000000000000000000000000000000000000000",
          "blockHash": "0x7717caa19386fb0a4d37eb4783307ced866ea9cab259bfe3f9bdd625f27edf1b",
          "blockNumber": "0x59cb6c8",
          "transactionHash": "0xf9f9ed267f9d084b15b63650b1f2e84d359c48ffe0dcbc090e14533790696468",
          "transactionIndex": "0x1",
          "logIndex": "0x3",
          "removed": false
        },
        {
          "address": "0x6b9C8671cdDC8dEab9c719bB87cBd3e782bA6a35",
          "topics": [
            "0x6eb224fb001ed210e379b335e35efe88672a8ce935d981a6896b27ffdf52a3b2",
            "0x000000000000000000000000c7a204bdbfe983fcd8d8e61d02b475d4073ff97e"
          ],
          "data": "0x0000000000000000000000000000000000000000000000000000000000000099000000000000000000000000000000000000000000000000000000000000000000000000000000000000000000000000000000000000000000000000000000800000000000000000000000000000000000000000000000000000000000000001000000000000000000000000000000000000000000000000000000000000008503000000000000000000000000000000000000000000000000000000000029f630000000000000000000000000980b62da83eff3d4576c647993b0c1d7faf17c73271300000000000000000000000005ae831342a66ba3640f5342eebb50352fc6a4b02714000000000000000000000000d556b9e2c661efebf8775cb538ff696621edd353000000000000000000000000000000000000000000000000000000",
          "blockHash": "0x7717caa19386fb0a4d37eb4783307ced866ea9cab259bfe3f9bdd625f27edf1b",
          "blockNumber": "0x59cb6c8",
          "transactionHash": "0xf9f9ed267f9d084b15b63650b1f2e84d359c48ffe0dcbc090e14533790696468",
          "transactionIndex": "0x1",
          "logIndex": "0x4",
          "removed": false
        },
        {
          "address": "0x6b9C8671cdDC8dEab9c719bB87cBd3e782bA6a35",
          "topics": [
            "0x6eb224fb001ed210e379b335e35efe88672a8ce935d981a6896b27ffdf52a3b2",
            "0x0000000000000000000000007b1bd7a6b4e61c2a123ac6bc2cbfc614437d0470"
          ],
          "data": "0x000000000000000000000000000000000000000000000000000000000000338400000000000000000000000000000000000000000000000000000000000000000000000000000000000000000000000000000000000000000000000000000080000000000000000000000000000000000000000000000000000000000000000f00000000000000000000000000000000000000000000000000000000000002f901271400000000000000000000000005ae831342a66ba3640f5342eebb50352fc6a4b0000001800000000000000000000000000000000000000000000000000000000000000000000000000000000000000000000000000000000000000000000000000000004000000000000000000000000000000000000000000000000000000000000001200000000000000000000000000000000000000000000000000000000000000000000000000000000000000000000000000000000000000000000000000000000000000000000000000000000000000000000000000000000000000000000000000000000000000000000000004a3af8c69cee81182a9e74b2392d4bdc616bf7c7000000000000000000000000980b62da83eff3d4576c647993b0c1d7faf17c730000000000000000000000000000000000000000000000000061b31ab352c000000000000000000000000000000000000000000000000000000000000000000000000000000000000000000000000000000000000000000000000000000000000000000000000000000000000000000000000000000000000000000000000000000000000000000000000000000000000000000000000000000000000000000000000000000000000000000000000000000000000000000000000000000000000000006000000000000000000000000000000000000000000000000000000000000000000000000000000000000000000000000000000000000000000000000000061a8000000000000000000000000000000000000000000000000000000006a6fd66db27150000000000000000000000004a3af8c69cee81182a9e74b2392d4bdc616bf7c70000000000000000000000007a0a53847776f7e94cc35742971acb2217b0db810000000000000000000000007a0a53847776f7e94cc35742971acb2217b0db81000000000000000000000000d556b9e2c661efebf8775cb538ff696621edd35301012713000000000000000000000000c7a204bdbfe983fcd8d8e61d02b475d4073ff97e000000000000009900000000000000",
          "blockHash": "0x7717caa19386fb0a4d37eb4783307ced866ea9cab259bfe3f9bdd625f27edf1b",
          "blockNumber": "0x59cb6c8",
          "transactionHash": "0xf9f9ed267f9d084b15b63650b1f2e84d359c48ffe0dcbc090e14533790696468",
          "transactionIndex": "0x1",
          "logIndex": "0x5",
          "removed": false
        },
        {
          "address": "0x7B1bD7a6b4E61c2a123AC6BC2cbfC614437D0470",
          "topics": [
            "0xda8540426b64ece7b164a9dce95448765f0a7263ef3ff85091c9c7361e485364",
            "0x0000000000000000000000000000000000000000000000000000000000003384"
          ],
          "data": "0x000000000000000000000000000000000000000000000000004fefa17b7240000000000000000000000000000000000000000000000000000000000000000000",
          "blockHash": "0x7717caa19386fb0a4d37eb4783307ced866ea9cab259bfe3f9bdd625f27edf1b",
          "blockNumber": "0x59cb6c8",
          "transactionHash": "0xf9f9ed267f9d084b15b63650b1f2e84d359c48ffe0dcbc090e14533790696468",
          "transactionIndex": "0x1",
          "logIndex": "0x6",
          "removed": false
        },
        {
          "address": "0xd556b9e2c661eFEbf8775cb538ff696621edD353",
          "topics": [
            "0x55598edb5fc0c4eb88e09edeeaa7f5e451f8b13d33c3f9585dcceeb492736a97",
            "0x0000000000000000000000000000000000000000000000000000000000002714",
            "0x0000000000000000000000000000000000000000000000000061b31ab352c000",
            "0x0000000000000000000000004a3af8c69cee81182a9e74b2392d4bdc616bf7c7"
          ],
          "data": "0x000000000000000000000000980b62da83eff3d4576c647993b0c1d7faf17c73",
          "blockHash": "0x7717caa19386fb0a4d37eb4783307ced866ea9cab259bfe3f9bdd625f27edf1b",
          "blockNumber": "0x59cb6c8",
          "transactionHash": "0xf9f9ed267f9d084b15b63650b1f2e84d359c48ffe0dcbc090e14533790696468",
          "transactionIndex": "0x1",
          "logIndex": "0x7",
          "removed": false
        }
      ],
      "status": "0x1",
      "logsBloom": "0x00200008010108040000002000000000000000000000000000000800000000000010000000000000000000000000010000000000800040000000000000200000000100000000000000000088100080000000000000000000080000000000000000000000020000000000820000000800010000000000000000000010000000000080000000000000000010000140000800000000000000000000008000000004020000000400000000000000000000000300000000000000000001000000000000000002000000004000000000200000800000000000000000000000000020008412000000000000000000020000000022000000000000080000000000000100",
      "type": "0x2",
      "effectiveGasPrice": "0x5f5e100"
    }
  ],
  "libraries": [],
  "pending": [],
  "returns": {},
  "timestamp": 1730665126,
  "chain": 421614,
  "commit": "5386d36"
}