{
  "transactions": [
    {
      "hash": null,
      "transactionType": "CALL",
      "contractName": null,
      "contractAddress": "0xd556b9e2c661eFEbf8775cb538ff696621edD353",
      "function": "setHub(uint16,address)",
      "arguments": [
        "10004",
        "0x05AE831342A66bA3640F5342eeBb50352fC6A4B0"
      ],
      "transaction": {
        "type": "0x02",
        "from": "0x4a3af8c69cee81182a9e74b2392d4bdc616bf7c7",
        "to": "0xd556b9e2c661efebf8775cb538ff696621edd353",
        "gas": "0xa370",
        "value": "0x0",
        "data": "0x71d17efc000000000000000000000000000000000000000000000000000000000000271400000000000000000000000005ae831342a66ba3640f5342eebb50352fc6a4b0",
        "nonce": "0xd",
        "accessList": []
      },
      "additionalContracts": [],
      "isFixedGasLimit": false
    },
    {
      "hash": null,
      "transactionType": "CALL",
      "contractName": null,
      "contractAddress": "0xd556b9e2c661eFEbf8775cb538ff696621edD353",
      "function": "setSpokeToHub(address,address)",
      "arguments": [
        "0x0000000000000000000000000000000000000001",
        "0x0000000000000000000000000000000000000001"
      ],
      "transaction": {
        "type": "0x02",
        "from": "0x4a3af8c69cee81182a9e74b2392d4bdc616bf7c7",
        "to": "0xd556b9e2c661efebf8775cb538ff696621edd353",
        "gas": "0xf9ec",
        "value": "0x0",
        "data": "0x7fb04add00000000000000000000000000000000000000000000000000000000000000010000000000000000000000000000000000000000000000000000000000000001",
        "nonce": "0xe",
        "accessList": []
      },
      "additionalContracts": [],
      "isFixedGasLimit": false
    },
    {
      "hash": null,
      "transactionType": "CALL",
      "contractName": null,
      "contractAddress": "0xd556b9e2c661eFEbf8775cb538ff696621edD353",
      "function": "setSpokeToHub(address,address)",
      "arguments": [
        "0x980B62Da83eFf3D4576C647993b0c1D7faf17c73",
        "0x0000000000000000000000000000000000000001"
      ],
      "transaction": {
        "type": "0x02",
        "from": "0x4a3af8c69cee81182a9e74b2392d4bdc616bf7c7",
        "to": "0xd556b9e2c661efebf8775cb538ff696621edd353",
        "gas": "0xfb15",
        "value": "0x0",
        "data": "0x7fb04add000000000000000000000000980b62da83eff3d4576c647993b0c1d7faf17c730000000000000000000000000000000000000000000000000000000000000001",
        "nonce": "0xf",
        "accessList": []
      },
      "additionalContracts": [],
      "isFixedGasLimit": false
    },
    {
      "hash": null,
      "transactionType": "CALL",
      "contractName": null,
      "contractAddress": "0xd556b9e2c661eFEbf8775cb538ff696621edD353",
      "function": "setSpokeToHub(address,address)",
      "arguments": [
        "0x75faf114eafb1BDbe2F0316DF893fd58CE46AA4d",
        "0x036CbD53842c5426634e7929541eC2318f3dCF7e"
      ],
      "transaction": {
        "type": "0x02",
        "from": "0x4a3af8c69cee81182a9e74b2392d4bdc616bf7c7",
        "to": "0xd556b9e2c661efebf8775cb538ff696621edd353",
        "gas": "0xfc3d",
        "value": "0x0",
        "data": "0x7fb04add00000000000000000000000075faf114eafb1bdbe2f0316df893fd58ce46aa4d000000000000000000000000036cbd53842c5426634e7929541ec2318f3dcf7e",
        "nonce": "0x10",
        "accessList": []
      },
      "additionalContracts": [],
      "isFixedGasLimit": false
    },
    {
      "hash": null,
      "transactionType": "CALL",
      "contractName": null,
      "contractAddress": "0xd556b9e2c661eFEbf8775cb538ff696621edD353",
      "function": "depositCollateral(address,uint256)",
      "arguments": [
        "0x0000000000000000000000000000000000000001",
        "50000000000000000"
      ],
      "transaction": {
        "type": "0x02",
        "from": "0x4a3af8c69cee81182a9e74b2392d4bdc616bf7c7",
        "to": "0xd556b9e2c661efebf8775cb538ff696621edd353",
        "gas": "0x5e9ea",
        "value": "0xb1a2bc2ec50000",
        "data": "0xa5d5db0c000000000000000000000000000000000000000000000000000000000000000100000000000000000000000000000000000000000000000000b1a2bc2ec50000",
        "nonce": "0x11",
        "accessList": []
      },
      "additionalContracts": [],
      "isFixedGasLimit": false
    }
  ],
  "receipts": [],
  "libraries": [],
  "pending": [],
  "returns": {},
  "timestamp": 1730664667,
  "chain": 421614,
  "commit": "5386d36"
}